:020000040800F2
:10100000381A0020D5100008D51B00083F1A000828
:1010100000000000000000000000000000000000D0
:101020000000000000000000000000008523000810
:101030000000000000000000411C0008FD23000823
:10104000E7100008E7100008D51F0008E7100008A7
:10105000E7100008E7100008E7100008E710000894
:10106000E7100008E7100008E7100008E710000884
:10107000E7100008E7100008E7100008E710000874
:10108000E7100008E710000800000000E710000863
:10109000E7100008E7100008E7100008E710000854
:1010A000E7100008E7100008E7100008E710000844
:1010B000E710000800000000E71000080000000032
:1010C0000348854600F066FB00480047216300089E
:1010D000381A00200448804704480047FEE7FEE72E
:1010E000FEE7FEE7FEE7FEE705240008C110000862
:1010F00030B50B46014600202022012409E00D46B0
:10110000D5409D4205D31D469540491B2546954037
:1011100040191546521E002DF1DC30BD03460B432D
:101120009B0703D009E008C9121F08C0042AFAD29D
:1011300003E00B780370401C491C521EF9D2704723
:10114000D2B201E00270401C491EFBD2704700225F
:10115000F6E710B513460A4604461946FFF7F0FFB6
:10116000204610BD421E5378521C002BFBD10B7839
:101170001370491C521C002BF9D17047421C017896
:10118000401C0029FBD1801A704710B5002200E0F6
:10119000521C835C8C5CA34201D1002BF8D1D8B2E5
:1011A000E1B2401A10BD03460A780270401C491C87
:1011B000002AF9D11846704730B50546002003468D
:1011C00000E05B1C934205D2EC5CC85C201A01D1A4
:1011D000002CF6D130BD70B5064601F067F9046801
:1011E00005460A220021304600F0FCF92C6070BD53
:1011F000F8B502464A40D40F42004B0052085B0843
:101200009A4202D20246084611464A0023D0C30D34
:101210004A00DDB2120EAD1A202D35DA4902012640
:10122000490AF6058A19002C00D0524220214F1B92
:101230001146B9402A411018C20D9A4221D0002C03
:1012400017D0012D08DCDA05801AD20F8019D207D9
:10125000DBB200F007FAF8BDDA05801A012340007E
:101260001B06C01880185A428018CA0F1043490044
:1012700007E04908C2071143DA05801A80194008BF
:10128000801800F0E7F9F8BD61000122511A001B37
:10129000F7E70122D2075140AAE70122D2075040C6
:1012A000A6E7024670B54A40D30FDB0740002DD0B9
:1012B0004A002AD0010E140E000212020919400A37
:1012C000520A8418E50104465443000A120A2E0407
:1012D0005043A4194219200CC543AA18120C012529
:1012E000AD03521C521912047F39240400D0521C41
:1012F000104301D44000491EC2B20C06C009201898
:10130000401C4008802A02D003E0002070BD400845
:101310004000002900DA0020184370BD70B5024675
:101320004A40D50F40004A00ED0740085208002807
:1013300014D0002A12D0C40DD30D41020120C005E3
:101340005202490A520AE41A091812187D349142CD
:1013500001D3641C00E04900002C01DA002070BDBC
:101360000023914201D3891A034340084900002811
:10137000F7D100290AD0914202D10121C90705E025
:10138000914201D2012101E00121C943E005C018C9
:10139000401900F05FF970BDF0B51FB488B00B992B
:1013A0000998002448400999C00F4900490809914B
:1013B000C0070B990090490049080B9109990898BA
:1013C000A64608431CD00B990A98084318D00998E0
:1013D00001244000420D4800410D099824050003F6
:1013E000000B204309900B980003000B20430B9047
:1013F00050181C494018002201901446104605E080
:10140000002001460DB0F0BD032801DA034600E0DC
:1014100003239C46C11A0AAE0AE05F0008ADED5BEB
:101420004F00F75B7D430027AA187C41491C5B1ED7
:101430006145F2DD410004AB5A522104120C0A430B
:10144000240C401C0828DFDB0198029000997046AC
:1014500001910090059B049A0799069800F048F9BD
:10146000D0E700000DFCFFFFF0B50C465C4085B0F6
:10147000E40FE40703944C000026640859009446E6
:10148000490802460296224321D062460A431ED0F2
:101490006200570D4A000E032303550D0124024636
:1014A0002C492405781B1B0B360B4018234326437D
:1014B000614600901C46501AB44103D30098401C6A
:1014C000009002E0921800985B41002803DA0020A7
:1014D000014605B0F0BD00200121090507468646FA
:1014E00011E064461D46141BB54106D36546521BE8
:1014F000B341744607430C43A646CD07400849084C
:10150000284392185B4105460D43EAD11046184323
:1015100013D06046194650407140084306D06046DB
:10152000101AB34106D20122002306E00022012353
:10153000DB0702E00122D2435310009874460105F4
:10154000381C6141029C039D0019694100F0C3F8F9
:10155000BFE70000FD03000010B5002296231146EE
:1015600000F080F810BD00000EB505490291002181
:1015700000910A460B46019100F0BAF803B000BD95
:1015800033040000410040020122400AD205090E46
:1015900080187F2901DA00207047962903DC962203
:1015A000511AC8407047963988407047CB0FDB0707
:1015B000490010B5490802460A4307D00A0D07241E
:1015C0000903E401090B121B002A01DC002010BDF5
:1015D000C900440F0C43C100E018D205801800F088
:1015E00039F810BDF7B5009C0F4600262578641C1D
:1015F000002D05D000F002F90068405DC007F5D16C
:101600002B2D02D02D2D18D0641E39462046029A6B
:1016100000F0F8F8002F04D03968A14201D10099F8
:1016200039607105022400290BDA4042002803DDED
:1016300000F03CFF0460A007FEBD012080020643CD
:10164000E3E70028F8DA00F031FF04600048FEBD4F
:10165000FFFFFF7F002904DA401C490001D1400848
:101660004000704770B40024050C05D1102400041C
:1016700002D1002921D01124050E01D10002083425
:10168000050F01D10001241D850F01D18000A41C8C
:10169000002801DB4000641C002908D020252E1BF7
:1016A0000D46F540A14000D0012129430843010621
:1016B0001B1B000ADB1D02D5002070BC7047DB0538
:1016C000181880180029F8DA401C4900F5D170BCC0
:1016D00040084000704710B5002B08DA0024401C79
:1016E000614192185B411A4301D14008400010BD8E
:1016F000F0B51FB482B005460C0003D0084600F0D8
:10170000B1FE02E000F0AEFE20300246009021461D
:10171000284600F051F8049B059A04460F461843EA
:101720001143084314D0184610431BD000984021A1
:101730000A1A1846059900F04FF805460E46009A19
:101740000599049800F038F8084305D0012004E01A
:101750002046394607B0F0BD0020C11705430E43AF
:101760002C43374300990E986305401A7905E40A23
:1017700000220C43FD0A0A3002D500200146E9E7A9
:101780000105101969410C9C0D9D00196941FFF775
:10179000A2FFDFE7064C0125064E05E0E36807CC13
:1017A0002B430C3C98471034B442F7D3FFF78CFC22
:1017B00058BD000878BD000810B5202A04DB01469A
:1017C000203A9140002010BD914020239C1A0346EE
:1017D000E3401943904010BD10B5202A04DB0846B1
:1017E000203AD040002110BD0B46D340D0402024E9
:1017F000A21A91400843194610BD000000487047E6
:10180000C8BB0008F7B582B0029C00272078641C92
:1018100015460197302802D0002D15D015E020780C
:101820000127641C782804D0582802D0002D09D044
:101830000BE0002D01D0102D07D1002710252078B6
:10184000641C02E0082500E00A250026009610E04E
:101850000099012769430818020C294680B2714398
:1018600000908E183804864201D301200190207820
:10187000641C294600F019F80028E9DA03980028CA
:1018800005D0002F01D0641E00E0029C0460019886
:10189000002806D000F00AFE02210160C81E05B033
:1018A000F0BD009930040843F9E73A2800D23038F7
:1018B000202302469A43412A01D3104637388842F2
:1018C00001D30020C043704770B58C180578401CC8
:1018D0006B075B0F01D10378401C2A1106D10278F7
:1018E000401C03E006780E70401C491C5B1EF9D1B9
:1018F0002B0705D40023521E0DD40B70491CFAE7A8
:101900000378401CCB1A921C03E01D780D70491C13
:101910005B1C521EF9D5A142D8D3002070BD000037
:1019200001494861704700000004014010B5837907
:1019300018490268002B26D00B6893430B604A6855
:1019400003689A434A600279521813680468234373
:1019500013608A6803689A438A60CA6803689A4376
:10196000CA604279102A05D051180A6800680243FB
:101970000A6010BD8A6803681A438A60CA680068F2
:101980000243CA6010BD00794018016891430160AC
:1019900010BD000000040140F0B5002201242346E0
:1019A0000D6893401D409D422AD10D79012D01D033
:1019B000022D12D1876855000326AE40B7438760D9
:1019C0004E79AE4085682E43866085889D4385802C
:1019D00085888B7993401D438580066855000323D5
:1019E000AB409E4306600E790768AE403E430660FA
:1019F000C6689E43C660CB79AB40C5682B43C360C5
:101A0000521C102ACBD3F0BD4B07DB0E9A40C908FD
:101A100010B589000818016A0F249C40A143016297
:101A2000016A1143016210BD0246128A00200A4277
:101A300000D00120704701857047816170471FB554
:101A400007F044F9074607F0C8F8064607F0AEF974
:101A5000054607F05AF9044607F0AAF8FE2103915B
:101A600023466C46E0C40246FF21084603F0DCFC36
:101A7000FEE70029016802D00122114301E0490874
:101A8000490001607047012292030029416801D09A
:101A9000114300E091434160704702469269002083
:101AA0000A4200D00120704710B502685208520067
:101AB00002600268134B8C681A4024024B6814437E
:101AC000234303600F230A681B069A4302610268DE
:101AD00001231A43026000228260C2600B698A6996
:101AE0001A43826082680123DB031A438260CA685A
:101AF0000368134303604268034B49691A4011436A
:101B0000416010BDFFE0CF00FF7FFF07406AC0B219
:101B1000704781627047000070B5049D4468890574
:101B2000890D1204034E11431943344029432143C4
:101B3000416070BD009800FC10B5044608F09CFEA2
:101B40000F2008F0F5FE2004000E08F0F1FEE0B2D0
:101B500008F0EEFE08F0C0FE044608F0ADFE204698
:101B600010BD70B50D46044608F086FEF02008F062
:101B7000DFFE2004000E08F0DBFEE0B208F0D8FE25
:101B8000284608F0D5FE08F097FE012070BD000041
:101B90000249014808607047CCCC0000003000408A
:101BA0000249014808607047AAAA000000300040BE
:101BB00001494860704700000030004001498860DA
:101BC0007047000000300040014908607047000085
:101BD000003000407047000030B583780121027862
:101BE000002B15D094080E4BA400E418236892072C
:101BF000D50EFF22AA40934342789207120EAA40C4
:101C00001A4322600078C006C00E8140054804E0F7
:101C1000D006C00E814003488030016030BD000016
:101C200000E400E000E100E004498A1500280868AB
:101C300001D0104300E090430860704700700040FE
:101C400070470000044A0029516901D0014300E0B7
:101C5000814351617047000000100240044A00298E
:101C6000D16901D0014300E08143D1617047000098
:101C700000100240044A0029116901D0014300E02C
:101C8000814311617047000000100240044A00299E
:101C9000D16801D0014300E08143D160704700006A
:101CA000001002401348016801221143016041689D
:101CB000114A114041600168104A114001600168F9
:101CC000012292049143016041683F221204914332
:101CD0004160C16A09090901C162016BFF225432E6
:101CE00091430163416B49084900416300218160D0
:101CF00070470000001002400CB8FFF8FFFFF6FE2E
:101D0000034600200A495A090CD0012A0CD0022AA5
:101D10000CD0496BDA06D20E012393400B4200D05F
:101D2000012070470968F5E7096AF3E7496AF1E7B6
:101D30000010024004490A6B10239A430A630A6B9D
:101D400002430A63704700000010024006490A6A15
:101D5000520852000A620A6A04239A430A620A6A13
:101D600002430A6270470000001002400122054948
:101D700012060028086801D0104300E09043086074
:101D8000704700000010024010B5054A53683D241A
:101D90002404A3435360536808430343536010BDB6
:101DA0000010024001220549D2030028086A01D030
:101DB000104300E0904308627047000000100240AA
:101DC00002490A6A02430A6270470000001002409A
:101DD000034A516889088900014351607047000037
:101DE0000010024018B500220092114ACA23536223
:101DF000532353620029916802D00143916012E09D
:101E000081439160000A01239B03D168009C01403B
:101E1000641C00949C4201D00029F6D0D168014294
:101E200001D1002000E00120FF21516218BD000017
:101E3000002800400021C1700170417081700122B2
:101E4000816002734160704701090A220007514313
:101E5000000F4018C0B27047002103E0491C0A3847
:101E6000C9B2C0B20A28F9D20907090E084370475F
:101E70000849CA224A6253224A620122D205002836
:101E8000886801D0104300E090438860FF204862DA
:101E9000704700000028004000098021084380B2FC
:101EA000C2430348C3680B401A43C2607047000036
:101EB0000028004018B5002000900C48C168490671
:101EC00012D40021C943C16040220314C168009CA0
:101ED0001140641C00949C4201D00029F6D0C068D7
:101EE000400601D4002018BD012018BD0028004084
:101EF0000248C16880229143C160704700280040B9
:101F0000024610B50F480C464068C021C943014045
:101F10000002000ECB04E070DB0E63708B069B0E9C
:101F20000904490FA3702170002A0AD1FFF78CFF22
:101F3000E0706078FFF788FF6070A078FFF784FF9B
:101F4000A07010BD0028004070B50D4900220B683C
:101F500004210B4C0B40403CA168860C0546F54023
:101F6000ED0B1D400140E3682943000903400029AF
:101F700003D01804000C00D00122104670BD0000F0
:101F80004028004070B50C4610490B6810491940B4
:101F90008A024D04920E22706D0E49066570490E3C
:101FA000A1705902490E40231940E17000280BD15D
:101FB0001046FFF749FF20706078FFF745FF60701B
:101FC000A078FFF741FFA07070BD0000002800401E
:101FD0007F7F7F0010B5012424032046FFF7B4FF64
:101FE000002804D006F0BBFE2046FFF755FF012075
:101FF0004004FFF795FC10BD30B50D4ACA2353626B
:102000005323536204250446094BAC434033284014
:102010000029916804D0214391601968014303E0CD
:10202000A1439160196881431960FF20506230BD5F
:102030000028004070B5054600260F4CCA2060629B
:1020400053206062FFF736FF002811D0A0684021BE
:102050008843A060A06829680843A060A868206140
:102060002069A988090408432061FFF741FF012680
:10207000FF206062304670BD00280040034908B56B
:10208000800040180090006808BD00005028004003
:1020900070B500211F4E0028B068144620D04006BD
:1020A00035D52078FFF7D0FE207BFFF7CDFE2078D6
:1020B000A578000405436078E1780002090408432C
:1020C0000543207B00060543A0680543606805437F
:1020D000CA20706253207062F561FF20706270BD8B
:1020E000400600D4E1702078FFF7B6FE0504607862
:1020F000FFF7B2FE00020543A078FFF7ADFE0543EF
:10210000E07800040543207BFFF7A6FEDAE7E170E4
:10211000CAE700000028004070B50C4601460026C2
:10212000607800290ED0FFF78FFEA078FFF78CFEB5
:10213000E078A5780004054360782178000249031F
:10214000084314E0C10603D5EF2108400A3060704F
:10215000E078FFF781FE05046078FFF77DFE00025E
:102160000543A078FFF778FE054320784003054338
:102170000C4CCA20606253206062FFF79BFE00286F
:102180000CD0094805406560FFF7B2FEA0688006E4
:1021900003D400F057F8002800D00126FF20606229
:1021A000304670BD002800403FFFFF00F8B50246F2
:1021B0000027224D0C46002A0978AA68384605D027
:1021C00052062FD50846FFF73FFE2CE0520600D4FA
:1021D000E0700846FFF740FE06046078FFF73CFE1B
:1021E00000020643A078FFF737FE0643E0780004BC
:1021F0000643CA20686253206862FFF75BFE00282E
:102200000CD00F4806402E60FFF772FEA8688006CB
:1022100003D400F017F8002800D00127FF206862DF
:102220003846F8BDE0702078A67800040643607850
:10223000E178000209040843DAE7000000280040C2
:102240007F7F7F0018B500201149009088688006C4
:1022500001D5012018BDCA20486253204862C868D1
:10226000A0229043C86020229302C868009C1040BE
:10227000641C00949C4201D00028F6D0C8688006F7
:1022800001D5012000E00020FF224A6218BD0000B5
:1022900000280040034A08B58000801800900160C3
:1022A00008BD00005028004040220029018801D0CC
:1022B000114300E0914301807047008903214902E6
:1022C000084070470D4910B5884209D18414012196
:1022D0002046FFF7DBFC00212046FFF7D7FC10BDAE
:1022E00007498842FBD1041401212046FFF7C2FCB4
:1022F00000212046FFF7BEFC10BD00000030014069
:10230000003800400246128900200A4200D0012015
:102310007047000030B50388C122920113400A883B
:10232000CC890D892243CC882C4322434C892243FB
:102330008C8922431A4302808288094B1A408B8879
:10234000134383800A8A02820288042349889A43BD
:1023500011430180818B034A1140818330BD00000D
:10236000FFF00000FFF70000007B70478288034BFE
:102370001A40828082880A4382807047FFEF000003
:102380000173704770470000034A1168890889008B
:1023900001431160704700000000014008B50020B3
:1023A0000090144911200860134841684160416859
:1023B000416041683F221204914341604168052217
:1023C000D2041143416001680122120611430160E9
:1023D00001688901FCD5416889088900416041682C
:1023E00002221143416041680907890F0229FAD18D
:1023F00008BD0000002002400010024010B508F0A7
:1024000093FB10BD10B5144801680122114301600F
:102410004168124A114041600168114A114001604F
:102420000168012292049143016041683F22120435
:1024300091434160C16A09090901C162016BFF2230
:10244000543291430163416B4908490041630021C3
:102450008160FFF7A3FF10BD001002400CB8FFF829
:10246000FFFFF6FE2021020C01D010211046020AC7
:1024700001D010460839020901D01046091F820810
:1024800001D01046891E420801D0881E7047081AE4
:10249000704730B47446641E2578641CAB4200D289
:1024A0001D46635D5B00E31830BC18470048704769
:1024B0002C02002002E008C8121F08C1002AFAD12D
:1024C00070477047002001E001C1121F002AFBD1B4
:1024D00070470000F8B50646164C0820207000230F
:1024E000154A637090880D46411C918003F014F9E1
:1024F000A080D088411CD18003F00EF9E08000223A
:102500005007A118400F521C92B20872202AF7D32C
:1025100063802821074801F0F6F903F0FDF8608098
:10252000064800902B4628220249304606F0C4FC9B
:102530000020F8BD2C0A002078010020B80B000014
:1025400010B502F02FF910BD10B502F02DF910BD35
:1025500010B502F02BF9C0B210BD10B502F028F989
:1025600010BD10B502F03AF910BD10B502F03AF9FD
:1025700010BD10B502F038F910BD10B502F060F9C9
:1025800010BD0000F0B5154F44003B4610331E4609
:10259000E518303E012A0CD0002232543A54203E35
:1025A0003254103632540120185518462030025546
:1025B00011E0325C002A0FD13A5C002A0CD1074AA4
:1025C000403A125C002A07D1044A303A105C0028D5
:1025D00002D1012018556970F0BD0000940A002056
:1025E000034A002111540121203211547047000088
:1025F000740A0020420003480123835410184170DC
:1026000070470000C40A0020084A002111542032FB
:102610001154403A054B1154420030339954203341
:10262000995401211A46603A11547047740A0020E7
:10263000014A012111547047840A002042000348D6
:10264000012383541018417070470000E40A0020F1
:10265000084A0021115420321154303A054B1154CC
:102660004200303399542033995401211A46703A6C
:1026700011547047740A0020034A002111540121AB
:10268000203A115470470000940A002038B5002405
:10269000102807D2694600F07CFB68464078002885
:1026A00000D00124204638BD0020044902464300E2
:1026B000401CC0B2CA521028F9D37047040B002046
:1026C000034A4000105AC840C00700D0012070479C
:1026D000040B002010B5430003480124C25A8C406B
:1026E0002243C25210BD0000040B0020C840C007A6
:1026F00000D0012070470000F3B597B000240546D4
:1027000001948CA0029400680090297815916421AE
:102710001598FEF7EDFC6A4606461071687864214C
:102720001290FEF7E5FC6A4650711490AA780746AD
:10273000642110461192FEF7DBFC6A4690710E9000
:102740000590EA78642110460C92FEF7D1FC6A46A7
:10275000D0710A9004900A211598FEF7C9FC0A214D
:102760007143401AC5B26A4615720A211298FEF7E3
:10277000BFFC0A217943401AC0B26A4650720890E1
:102780000D900A211198FEF7B3FC014605980A2224
:102790005043081AC0B26A469072079013900A21FB
:1027A0000C98FEF7A5FC014604980A225043081A2B
:1027B000C0B26A46D07284460F90642230465043BD
:1027C00015996A46081A0A216943401AC1B2117262
:1027D000642212985743C21B0D980A235843101ABB
:1027E000C0B26A465072069005986423119A584305
:1027F000121A13980A235843101AC0B26A469072EC
:1028000005900498642358430C9A0A23121A6046D0
:102810005843101AC7B26A46D772002E4BD03036D2
:102820003035167055703031104691700146189849
:10283000FEF798FC40A11898FEF794FC6846407992
:10284000002845D014986946303008700898303018
:1028500048700698303088701898FEF783FC36A1CF
:102860001898FEF77FFC68468079002841D00E98C2
:10287000694630300870079830304870059830301D
:1028800088701898FEF76EFC2BA11898FEF76AFC6A
:102890006846C07900283DD00A99684630310170F9
:1028A0000F99303141703037877001461898FEF724
:1028B00059FC19B0F0BD002D104605D0303505701B
:1028C000303141708470B1E7303101704470F9E704
:1028D0000898002807D069463030087006983030D4
:1028E00048708C70B8E706986946303008704C70B4
:1028F000F7E70798002807D0694630300870059838
:10290000303048708C70BCE70598694630300870EC
:102910004C70F7E70F98002807D001463031684621
:102920000170303747708470BFE7684630370770F2
:102930004470F8E7000030002E000000F7B50020DA
:1029400082B015460646024607460090AF54521C18
:10295000D2B2202AFAD301290CD0022912D003299D
:1029600018D004291ED0052923D0062928D00729EC
:1029700043D02BE00824012632A1029808F0B2F8D7
:10298000083023E00D24012631A1029808F0AAF8AE
:102990000D301BE00924012631A1029808F0A2F8AD
:1029A000093013E00F2431A1029808F09BF80F3092
:1029B0000CE00C2431A1029808F094F80C3005E0EA
:1029C0000A2432A1029808F08DF80A30002835D088
:1029D000011901229202203191422FD20021002EB2
:1029E00017D0029A4318D25C1346303B092B17D9F3
:1029F0002E2A15D0262A15D016E027A1029808F015
:102A000071F80D300D2802D90120287016E02F70C2
:102A100014E0029A4318D25C262A03D0102901D26E
:102A20006A5401E001220092491CC9B2202902D255
:102A3000009A002AD3D00098012800D0002005B0C9
:102A4000F0BD0000697056616C75653D00000000C6
:102A50007375626D61736B56616C75653D00000046
:102A600067747756616C75653D0000006564696642
:102A70006963696F4E6F6D6272653D006C696E656A
:102A8000614E6F6D6272653D0000000061646D69AA
:102A90006E506173733D0000496E707574436865D4
:102AA000636B426F78000000F0B50446002085B0EB
:102AB000019002900390074604900D462046FEF7D1
:102AC0005DFBC6B20020694609E0225C2E2A04D1D3
:102AD000C855032F01D27F1CFFB2401CC0B2B042C8
:102AE000F3D300216A46084601AB127805E0275C63
:102AF0005F54491C401CC9B2C0B28242F7D80021C1
:102B0000521CD0B26A46527807E001AB5B18275CD2
:102B1000491C401C1F71C9B2C0B28242F5D80021C5
:102B2000521CD0B26A46927807E001AB5B18275C72
:102B3000491C401C1F72C9B2C0B28242F5D80021A4
:102B4000521CD0B201AF06E07B18225C491C401C2D
:102B50001A73C9B2C0B2B042F6D33846FEF73BFB97
:102B60002870381DFEF737FB687003A8FEF733FBAB
:102B7000A87004A8FEF72FFBE870012005B0F0BD97
:102B800002460020082904D2054B9A5C04E001208B
:102B90007047044B08399A5CCA40D107F7D1704797
:102BA0000008002040080020F0B585B014460D460E
:102BB000064600F03FF803462146284600F0D8F8C4
:102BC0000546012B04D0022B08D0032B1AD022E09B
:102BD0007006800E294601F0F1FC1CE0304600F042
:102BE00039F80746002439462046FFF7C9FF012877
:102BF00003D12946204601F0E1FC641CE4B2402CDC
:102C0000F1D308E000242946204601F0D7FC641CDB
:102C1000E4B2402CF7D36946304600F05CF86846D1
:102C200006F0C0F902490120087005B0F0BD0000AF
:102C3000E40000200146812200200A40012A00D140
:102C40000120E1220A40812A00D10220FF2900D17F
:102C500003207047014681281FD083291FD0852972
:102C60001FD087291FD089291FD08B291FD08D29DC
:102C70001FD08F291FD091291FD093291FD09529AC
:102C80001FD097291FD099291FD09B291FD09D297C
:102C90001FD09F2800D10F207047002070470120CF
:102CA00070470220704703207047042070470520BA
:102CB000704706207047072070470820704709209A
:102CC00070470A2070470B2070470C2070470D207A
:102CD00070470E20704770B50C460646FFF7AAFFF6
:102CE0000125032809D002280ED0012804D170063E
:102CF000800E214600F018F870BD00202554401CBD
:102D0000C0B21028FAD370BD3046FFF7A3FF0022EF
:102D10001146824201D1A55400E0A154521CD2B206
:102D2000102AF6D370BD0000F0B500220E4D01242C
:102D300013462E5CD640F60701D08C5400E08B542D
:102D4000521CD2B2082AF4D3084D08222E5C174632
:102D5000083FFE40F60701D08C5400E08B54521C13
:102D6000D2B2102AF2D3F0BD0008002040080020A3
:102D70000246012807D0072A07D0062A07D00028D4
:102D800000D1084670470020704701207047FE20A0
:102D90007047F3B5002581B00C462F462E460095AE
:102DA00030460199FFF7ECFE012811D1304601F0C1
:102DB00015FC01280CD16D1CEDB2304601F0D4FB9E
:102DC0000099091889B20091002801D17F1CFFB237
:102DD000761CF6B2402EE3D3002D06D02570677026
:102DE00029460098FEF784F902E000202070607008
:102DF000A070FEBD10B5094C05202178FEF7B1FE8C
:102E000061780620FEF7ADFEA1780720FEF7A9FE47
:102E1000E1780820FEF7A5FE10BD0000DC000020D0
:102E200030B5002403E0055D0D55641CA4B29C423E
:102E3000F9D31088C018108030BD30B5002403E0ED
:102E4000055D0D55641CA4B29C42F9D31088C018CE
:102E5000108030BDF0B500220124082803D20F4BAA
:102E600005469E5C05E00D4B40339E5C0346083BE7
:102E7000DDB2D308DF00D71BEE40F507CD5CFFB213
:102E8000264602D0BE40354301E0BE40B543521C49
:102E9000D2B2CD54402AE0D3F0BD0000000800209B
:102EA00030B50123082813D20022144C8340D008E7
:102EB000C500085C551BE840C007A05C01D0184362
:102EC00000E09843A054521CD2B2402AEFD330BD48
:102ED0000A4C0022403408388340D008C500085C02
:102EE000551BE840C007A05C01D0184300E09843A0
:102EF000A054521CD2B2402AEFD330BD00080020AB
:102F000000B500F001F800BDF0B5354800210246DB
:102F10003C3A0B460127324D4C00065B143D2C5BBE
:102F2000A64208D30A3D6D5C012D04D0A64204D907
:102F30000224545402E0575400E05354491CC9B2CF
:102F40000529E8D326494239097801292BD10021E6
:102F5000244D4C002E5B002E01D0761E2E53555C66
:102F6000012D02D0022D0FD016E01D4E055B0A3E4A
:102F7000365BB54204D21C4EB54201D06D1C0AE04E
:102F8000174C1E3C635407E0055B002D04D0164E21
:102F9000B54201D06D1E0553491CC9B20529D7D3CE
:102FA0000F48423803700F4900201431145C002C84
:102FB00004D0012C05D0022C08D00BE044000B55A6
:102FC00006E044000B556418677003E044000F5599
:102FD00064186370401CC0B20528E7D3F0BD000040
:102FE0001202002046110020FFFF000070B50A4CBD
:102FF00022460A32FF2806D04100635A535200216C
:1030000000F00CF870BD00214B00491CE55AC9B214
:10301000D5520529F8D3F2E708020020F8B50D468D
:103020000146264806460F36FF291AD0405C012883
:1030300016D130464C000A30035B214A934208D136
:10304000FE2D35D0002D35D00022025301221E382E
:103050004254315B284600F0EBF81849491D0853EB
:10306000F8BD00241548005D012817D113486700FA
:103070001930C25B12498A4209D1FE2D13D0002DAE
:1030800013D00021C1530D490120491F0855F15BA0
:10309000284600F0CDF80949491DC853641CE4B224
:1030A000052CDFD3F8BD002100E0F15BC153EEE752
:1030B000002100E0315B0153CBE70000F901002063
:1030C000FFFF000070B50C4D00212B460A3B052286
:1030D0005C1FFF2805D02D5C012D01D11A5421540D
:1030E00070BD00202E5C012E01D11A542154401CC9
:1030F000C0B20528F6D370BDF901002070B50C4DA3
:1031000000212B460A3B04225C1FFF2805D02D5CC2
:10311000012D01D11A54215470BD00202E5C012EC6
:1031200001D11A542154401CC0B20528F6D370BDF9
:10313000F9010020F0B50E4B00211A461E46143A44
:1031400001240A3E551DFF2806D01B5C012B02D12D
:10315000315414542954F0BD00201F5C012F02D1BA
:10316000315414542954401CC0B20528F5D3F0BD85
:10317000F901002010B50022084BFF2805D04100BE
:103180005A52FE21FFF74AFF10BD00214C00491C96
:10319000C9B21A530529F9D3F3E70000120200203F
:1031A00010B5064A4300D45A240A0C70D25C4A7007
:1031B000024A373A105C887010BD000008020020F7
:1031C00010B50A784B781202D218054C4300E2522F
:1031D00022468978373A115402490320087010BDFD
:1031E00008020020B201002070B505460846FEF72F
:1031F000B3F904462846FEF7AFF92146FEF78EF8EC
:103200000A49FEF74EF80546FEF7BCF9C4B220465F
:10321000FEF7A2F92946FEF740F83F210906884249
:1032200001DD641CE4B2204670BD000000007E4356
:1032300070B506460846FEF797F900220F4BFEF7D9
:1032400013F905460C463046FEF78EF92A4623460A
:10325000FEF7A2F8FEF7AAF90546FEF793F984B245
:103260002046FEF779F92946FEF717F83F210906AF
:10327000884201DD641CA4B2204670BD00C06F40CE
:1032800010B50449034A4000095A0A32105AFFF7A0
:10329000ABFF10BD080200200149012008707047F3
:1032A000D0010020F8B50024674E2746664816383E
:1032B000005D01286548005D02D001283ED050E045
:1032C000012801D0A0002AE0305D01281BD05E4813
:1032D000A5009230405B81B25B4866304059FEF7F2
:1032E000A3FB5B490128485921D0FF2801D2401C8B
:1032F000485155483A30405B81B253480E304059EE
:10330000FEF79BFB98E05249A0000A58514B9A42A5
:1033100002D2521C0A5002E0FF220A5037554A4995
:10332000494A3A31095A0E3289B2105882E00028CF
:1033300001D0401EDCE701203055DAE74249A00009
:103340009231414A095A663289B21058FEF76CFB35
:10335000002806D13D48002207550821204602F0EA
:1033600011FE3948A5009230405B81B23648663084
:103370004059FEF759FB002818D133496000BE318F
:103380000090085A334A904203D10098C8220A524A
:103390000CE000280AD100220221204602F0F2FDB2
:1033A0002C48294A401E0099BE3250522748005DE1
:1033B000002828D124489230405B81B222486630F0
:1033C0004059FEF731FB01281DD11F496000BE3175
:1033D0000090095A1F48401E814202D10022042158
:1033E00001E000220121204602F0CCFD164A00999E
:1033F0001848BE32505215490120085500221021AC
:10340000204602F0BFFD1148005DFF280BD10E4899
:103410009230405B81B20C4866304059FEF704FBA5
:1034200001460A48015508483A30405B81B20648D7
:103430000E304059FEF7FFFA641CE4B2B7720B2C51
:1034400000D233E7F8BD0000960800208B0800206A
:1034500030010020FFFF0000044A11540B32012903
:1034600002D0FF21115470470021FBE780080020A3
:103470000149085C704700008B08002030B50A4AFB
:10348000125C012A0ED1084A0B32135C8B4209D020
:1034900013460B331B5C002B03D1FF23034D840029
:1034A0002B51115430BD0000800800203001002055
:1034B000F0B5A7B0FEF7F6FB0721C9040020FEF720
:1034C00063FC0120FEF752FC0220FEF781FC012183
:1034D0004804FEF7B7FB01218804FEF7B3FB012186
:1034E000C804FEF7AFFB01218805FEF7ABFB012600
:1034F00069460E710320487100248C71CC71D54847
:103500000925ED0600902846FEF746FA69460E7337
:10351000032048738C73CC73CF4802A90296FEF740
:103520003BFA69460E75032048758C75CC75FF20F3
:1035300019300490C94804A9FEF72EFA69460E779F
:10354000032048778C77CC7710200690C44806A9D2
:10355000FEF722FA009881B22846FEF76CFA02982C
:1035600081B2BD48FEF767FA049881B2BB48FEF706
:1035700062FA069881B2BA48FEF75DFA08A90C71A2
:10358000CC71B84808902846FEF706FA08A90C73D3
:10359000CC7302200A90B0480AA9FEF7FDF908A9E9
:1035A0000C75CC75112040010C90AC480CA9FEF7AD
:1035B000F3F908A90C77CC7720200E90A8480EA923
:1035C000FEF7EAF9A848FF21024644720B32517215
:1035D00001467C314D62F2022C314A6202462432AD
:1035E000556233032C32536207460472FF230B37B4
:1035F0003B7203467C331D6273020B620346243325
:103600001D62B3021362C471FF23FB71934B7137C8
:10361000FB617302CB6103462433DD613302D36166
:103620008471FF23713FBB718B4B7137BB610223E8
:103630008B618A4B583FBB61330293614471FF2316
:10364000193F7B71854B71377B6120234B61824B26
:10365000583F7B6156610471FF23193F3B7103465C
:103660007C331D6180230B617C4B19373B61102338
:103670001361C470FF23193FFB7003467C33DD6088
:103680002023CB6003462433DD604023D360847065
:10369000FF23BB70724B7137BB6020238B600346E6
:1036A00024339D60102393604470FF23713F7B702F
:1036B00003467C335D6008234B60694B19377B60A0
:1036C000102353600470FF23193F3B7003467C3383
:1036D0001D6002230B60034624331D600423136026
:1036E00086720B3084720B465C482C3B9862082033
:1036F00088625A4884398862082090620121C00299
:10370000FEF7ACFA022018A90877032048778C77D7
:10371000CC77072040031E901EA94F48FEF73CF9C6
:1037200020A90E71032048718C71CC713003209058
:103730004948FEF731F931034748FEF77EF920A9E1
:103740000E73032048738C73CC73F002229022A96D
:103750004148FEF721F9F1023F48FEF76EF9434D6B
:103760002846FEF7AFFD10A9FF200C8005304880E9
:10377000072000028880CC800C81681548818C81EC
:10378000CC810C822846FEF7C5FDA9142846FEF719
:10379000EDFD01212846FEF787FD8020249020A919
:1037A0000E7524A92D48FEF7F7F880212B48FEF767
:1037B00042F901214805FEF751FA1020FEF7BAFA46
:1037C000012206212448FEF71FF901220721224881
:1037D000FEF71AF940201590022010A908768E767F
:1037E000CC7615A91C48FEF7D7F88020159002204A
:1037F00010A908768E76CC7615A91748FEF7CCF876
:103800001B481C941790189419941B941A9417A988
:103810001848FEF749F901211648FEF72AF916481B
:103820007D21C9000068FDF763FC1449884210D867
:1038300001401348491E416112490722CB691B020E
:103840001B0A44042343CB6100218161026127B03C
:10385000F0BDFEE7541500000004004800080048D1
:1038600000140048AA0A0000800800200038004028
:10387000270212A000540040C0000020FFFFFF00FC
:1038800000E000E004ED00E010B5074C074900201F
:103890004300CA5A521EA24200D2CA52401CC0B2B1
:1038A0000B28F5D310BD0000FDFF000054090020D7
:1038B0001FB50C4A6C460FCA0FC40B4C4021204662
:1038C000FEF7B2F800280CD140212046FEF7ACF8F4
:1038D0000028F9D000F0ACFA684606F00FFF07F0B8
:1038E0002DFB1FBD20BA0008001400487047704728
:1038F000007808701088401C10807047087010888D
:10390000401C1080704770B54D080022134609E036
:103910005E00845D3618767824023419A4B2121938
:103920005B1C9BB2AB42F3D3C90703D05900405C88
:1039300000028218100C8018C04380B270BD0000D5
:1039400010B5104801F0F6FC0E480178002917D197
:103950004178002914D18178002911D1C07800283C
:103960000ED10520FEF7FDF800210620FEF7F9F83C
:1039700000210720FEF7F5F800210820FEF7F1F8F6
:1039800010BD0000E000002070B5050208481021BD
:1039900028180446FEF7E5F82046FEF7CDF8002883
:1039A000FAD10348FF21401C2818FEF7DAF870BD51
:1039B00001040000044A0021535C4354491CC9B26D
:1039C0000F29F9D3704700007006002010B5064B90
:1039D0000022845C9C54521CD2B2102AF9D30129D3
:1039E00001D100F0FFFA10BD7006002030B5064C82
:1039F000002223464033A55C85549D5C8D54521CA7
:103A0000D2B2402AF7D330BDD006002070B5084DA1
:103A100000232C46403CCE5CEE54C65CE6545B1C56
:103A2000DBB2402BF7D3012A01D100F0DBFA70BDE5
:103A300010070020044A0021535C4354491CC9B2BA
:103A40004029F9D3704700009006002010B5064BBE
:103A50000022845C9C54521CD2B2402AF9D3012922
:103A600001D100F0BFFA10BD90060020044A0021E9
:103A7000535C4354491CC9B20429F9D37047000070
:103A80002C01002010B5064B0022845C9C54521C73
:103A9000D2B2042AF9D3012901D100F0A3FA10BD52
:103AA0002C01002038B500220424604B114610463A
:103AB000009402F041FB5D4B00211B1D04220846CF
:103AC000009402F039FB594B0021083308220846C4
:103AD000009402F031FB10240021554B0C220846C3
:103AE000009402F029FB524B002110331C2208469F
:103AF000009402F021FB4E4B002120332C2208467B
:103B0000009402F019FB0F20494B00210090303344
:103B10003C22084602F010FB0120444B002100909B
:103B20009B1F4B22084602F007FB414B402400221A
:103B3000403301211046009402F0FEFA3C4B402233
:103B4000803301210020009402F0F6FA384B8022E5
:103B5000C03301210020009402F0EEFA354B4022E0
:103B600004210020009402F0E7FA324BC0224033D7
:103B700004210020009402F0DFFA0B2000220090C4
:103B80002D4B0521104602F0D7FAB02000902B4BA8
:103B90000B220521002002F0CFFA0224284BBB2281
:103BA00005210020009402F0C7FA264BBD22052112
:103BB0000020009402F0C0FA234BBF220521002010
:103BC000009402F0B9FA214BC12205210020009493
:103BD00002F0B2FA1E4BC32205210020009402F02D
:103BE000ABFA1C4BC52205210020009402F0A4FA78
:103BF000194BC72205210020009402F09DFA0A20EB
:103C00000090164BCD220521002002F095FA0520E8
:103C100001460090124BD722002002F08DFA00F0EE
:103C2000FBF800F0A3FB00F0E3FB38BD240100200B
:103C300050060020000800202F1000203A1000201D
:103C4000B4010020BC010020BE010020C001002002
:103C5000B6010020B8010020BA01002008020020AF
:103C6000D101002001490978017070471E01002030
:103C700010B5044A00781070012901D100F0B2F9A2
:103C800010BD00001E01002038B50C4609494978D6
:103C900000290CD10E210091014623460022072065
:103CA00002F04AFA2078012801D8012038BD00200E
:103CB00038BD00001E01002038B505460B480C46F3
:103CC0008078012801D0002038BD02F097FA0D203D
:103CD0000090234600222946072002F06FFA02F0E6
:103CE00060FAC007FBD1012038BD00001E01002092
:103CF000044901208A78012A00D0002000228A701D
:103D0000704700001E01002070B50A4C0125A07804
:103D100000280CD102F072FA00221146072002F0AE
:103D20002BFA02F03EFAC007FBD10120A070284612
:103D300070BD00001E010020044A0021535C435462
:103D4000491CC9B20429F9D370470000240100209E
:103D500010B5064B0022845C9C54521CD2B2042A3B
:103D6000F9D3012901D100F03DF910BD2401002053
:103D7000044A0021535C4354491CC9B21029F9D3A9
:103D8000704700008006002010B5064B0022845CBE
:103D90009C54521CD2B20F2AF9D3012901D100F050
:103DA00021F910BD80060020044A0021535C4354D1
:103DB000491CC9B21029F9D37047000050060020F1
:103DC00010B5064B0022845C9C54521CD2B2102ABF
:103DD000F9D3012901D100F005F910BD50060020EA
:103DE000044A0021535C4354491CC9B21029F9D339
:103DF000704700006006002010B5064B0022845C6E
:103E00009C54521CD2B2102AF9D3012901D100F0DE
:103E1000E9F810BD6006002008B5042000220090DB
:103E2000024B1146012002F087F908BDC2010020B3
:103E300030B522A095B00068109021A000681190C4
:103E4000204800210246129110323CCA009201AA79
:103E500038C2024620323CCA049205AA38C2024641
:103E600030323CCA089209AA38C240301DC80CAD95
:103E700013911DC510A8FFF76BFF002111A800F0DA
:103E800035FA002112A8FFF7FDFD00216846FFF773
:103E900097FF002104A8FFF7AFFF002108A8FFF754
:103EA00095FD00210CA8FFF76FFF002113A8FFF775
:103EB000DFFE00F097F815B030BD0000C0A801FE8D
:103EC000FFFFFF0090B9000838B50C460949497852
:103ED00000290DD10E2110300091C1B223460022DD
:103EE000062002F029F92078012801D8012038BDE8
:103EF000002038BD1E010020F8B5114D0646687837
:103F00000C46012801D00020F8BD02F077F9E079D5
:103F100006F0FBF9A880217A6172010AE171207232
:103F20000E2010360090F1B223460022062002F047
:103F300045F902F036F9C007FBD10120F8BD0000B9
:103F40001E010020044901204A78012A00D00020E7
:103F500000224A70704700001E01002008B50B4681
:103F600007494978002901D0002008BD08215030B8
:103F70000091C1B20022062002F0DEF8012008BD47
:103F80001E01002038B504460B480D464078012834
:103F900001D0002038BD02F031F9082050340090E3
:103FA000E1B22B460022062002F008F902F0F9F8EF
:103FB000C007FBD1012038BD1E01002010B501242F
:103FC00002F01CF900221146062002F0D5F802F09A
:103FD000E8F8C007FBD1024901204870204610BD17
:103FE0001E010020F0B5FFB0FFB0C3B0FC2179A8DE
:103FF000FDF7ADF89A4EB8AD30687890FC21281DD9
:10400000FDF7A5F87068B890FC2138AC39A8FDF729
:104010009EF8B0683890D82102A8FDF798F8F068AB
:10402000FFAEA8360190042300228E49304601F0ED
:1040300053F98C4904231A46091D304601F04CF906
:104040008849042308220831304601F045F910233D
:104050000C228549304601F03FF9834910231C2288
:104060001031304601F038F97F4910232C222031DD
:10407000304601F031F97C490F233C223031304683
:1040800001F02AF9774901234B22891F304601F0BC
:1040900023F97549F9AE402300224031304601F042
:1040A0001BF9714940231A468031304601F014F95A
:1040B0006D4940238022C031304601F00DF9402384
:1040C0001A466A49204601F007F968494023C02290
:1040D0004031204601F000F90B230022644901A879
:1040E00001F0FAF8B0230B22624901A801F0F4F8BC
:1040F0000223BB22604901A801F0EEF80223BD2291
:104100005E4901A801F0E8F80223BF225C4901A83A
:1041100001F0E2F80223C1225A4901A801F0DCF8BB
:104120000223C322584901A801F0D6F80223C52270
:10413000564901A801F0D0F80223C722544901A82A
:1041400001F0CAF80A23CD22524901A801F0C4F8AF
:104150000523D722504901A801F0BEF80024FFAF83
:10416000F4373946204600F0D1F8220110233946B1
:1041700078A801F0B1F8641CE4B2102CF1D3474FD9
:1041800000246F44220110233946284601F0A4F888
:10419000641CE4B2102CF5D302F030F80022114672
:1041A000104601F0E9FF01F0FCFFC007FBD102F06F
:1041B00025F84C200022FFAB0090A8331146104692
:1041C00001F0FCFF01F0EDFFC007FBD102F016F893
:1041D000C0200022009033460121104601F0EEFF7E
:1041E00001F0DFFFC007FBD102F008F8FF24013423
:1041F000002278AB02211046009401F0DFFF01F0AD
:10420000D0FFC007FBD101F0F9FF00222B460321AC
:104210001046009401F0D2FF01F0C3FFC007FBD1AC
:1042200001F0ECFF002238AB04211046009401F0AD
:10423000C5FF01F0B6FFC007FBD101F0DFFFDC20B6
:104240000022009001AB0521104601F0B7FF01F0FC
:10425000A8FFC007FBD17FB07FB043B0F0BD000026
:1042600090B900082401002050060020000800201A
:104270002F1000203A100020B4010020BC010020C3
:10428000BE010020C0010020B6010020B8010020BE
:10429000BA01002008020020D1010020FC04000027
:1042A00038B5044601F0AAFF00221146012001F0B2
:1042B00063FF01F076FFC007FBD101F09FFF0420F0
:1042C0000022009023461146012001F077FFFFF7FE
:1042D000A3FD38BD044A0021535C4354491CC9B2B4
:1042E0000429F9D3704700002801002010B5064BBF
:1042F0000022845C9C54521CD2B2042AF9D30129B6
:1043000001D1FFF76FFE10BD2801002010282AD22E
:10431000154A125C0A70144A1032125C4A70124A32
:104320002032125C8A70104A3032125CCA700E4A17
:104330004032125C0A710C4A5032125C4A710A4ACD
:104340006032125C8A71084A7032125CCA71064A85
:104350008032125C0A72044A9032125C4A72024A3B
:10436000A032105C88727047500700207FB500248F
:104370000B252007020E01AB02210020009501F061
:10438000DBFE002201A9204600F006F8641CE4B21E
:10439000102CEED37FBD000010B5102821D2134C95
:1043A0000B7823544B78103423548B7810342354D7
:1043B000CB78103423540B79103423544B791034B8
:1043C00023548B7910342354CB79103423540B7A33
:1043D000103423544B7A103423542346897A1033F3
:1043E0001954012A01D1FFF7FDFD10BD500700202F
:1043F0003EB5002408252007020E01AB0321002052
:10440000009501F099FE641CE4B2102CF3D33EBD7C
:104410007047704770470020704700001CB5124974
:1044200002780A7042784A7082788A70C078C870C0
:104430000D484021801E017000214170C01E417056
:10444000FFF7E6FFFF2101280091019106D0FF232D
:104450001A461946002000F039F81CBDFF23002140
:104460001A460120F7E70000CC0100201CB5164ACF
:10447000037813704378537083789370C078D0704A
:10448000901E002902D0012904D007E040220270CA
:10449000082202E077220270012242700A48401F7F
:1044A0004170FFF7B6FFFF2101280091019106D06E
:1044B000FF231A461946002000F008F81CBDFF2310
:1044C00000211A460120F7E7CC010020F0B585B0A5
:1044D00083256C460A9E25710C4D2F7867716D7887
:1044E000A5710525E57120726172A272E3722673CF
:1044F0000B9860730648054B00909B1C0A2201A98B
:10450000002000F001FD05B0F0BD0000CA01002050
:10451000BA0800001CB5134902780A7042784A7044
:1045200082788A70C078C8700E484021801E017061
:10453000092141700B490020491F4870FFF76AFFAD
:10454000FF2101280091019106D0FF231A46194648
:104550000020FFF7BBFF1CBDFF2300211A460120EE
:10456000F7E70000CC01002030B5B1B00546FF24CC
:104570006846FFF75FFA20A910A8FFF737FA6846E8
:10458000405D012814D10C48415D8038002902D1DA
:10459000425D012A03D0405D002804D004E00648B3
:1045A0004038445D04E03F24012901D18034E4B265
:1045B000204631B030BD00009004002070B50D469B
:1045C000044600F032F8012804D103490855084692
:1045D0004030055570BD0000100400200149085C02
:1045E000704700001004002030B5B1B0044600252B
:1045F00011A8FFF71FFA21A901A8FFF7F7F9402C2E
:1046000011D211A8005D01280AD101A8005D01287E
:1046100002D0002803D003E021A8055D00E040257A
:10462000284631B030BD0020FBE710B590B00446FD
:10463000402806D26846FFF7FDF96846005D10B0D5
:1046400010BD0020FBE70000F0B5B5B005460E46F2
:10465000002404A8FFF7EEF914A924A8FFF7C6F96F
:10466000F200012104A8002D09D014AE012D1ED0A6
:10467000022D37D0032D54D0042D65D04EE0474D88
:1046800000232E468036D118C9B2475C012F09D1CC
:10469000775C002F06D1695C002903D00121994085
:1046A0000919CCB25B1CDBB2082BECD372E03B4D9A
:1046B00000238035D118C9B2475C012F0DD1775C3A
:1046C000012F0AD16F5C002F07D1354F795C00298B
:1046D00003D0012199400919CCB25B1CDBB2082B35
:1046E000E8D357E00023D618F6B2875D012F11D129
:1046F00014AFBF5D012F0DD1284F8037BF5D002F54
:1047000008D1264FC03FBF5D012F03D10E469E400A
:104710003419E4B25B1CDBB2082BE4D3052D22D0A4
:1047200038E0002324AED518EDB2475D012F06D145
:10473000755D012D03D10D469D402C19E4B25B1C23
:10474000DBB2082BEFD325E00023D518EDB2455D91
:10475000012D03D10D469D402C19E4B25B1CDBB248
:10476000082BF2D316E00D4D00238035EE1FF93EE5
:10477000D118C9B2475C012F08D16F5C002F05D159
:10478000715C012902D199400919CCB25B1CDBB2E2
:10479000082BEDD3204635B0F0BD000010040020FA
:1047A00090020020002070470020704700207047D2
:1047B00070B509490024097800290BD145008135DD
:1047C0000121284601F018F80124FF22214628463D
:1047D000FEF7EAF9204670BD610100200020704715
:1047E000704770470020704770B509490024097868
:1047F00000290BD1450081350621284600F0FCFF39
:104800000124FF2206212846FEF7CEF9204670BD7E
:104810006101002010B508490878012805D1074A30
:104820001078002802D0401E107010BD00200870C3
:1048300003F058FC10BD000061010020A60100201B
:104840000020704710B50349095C012901D100F02F
:1048500045F810BDD811002070B5144A0125002478
:1048600020291BD0302919D01454104E0A22034697
:1048700053430A360E4A282912D0382910D0002175
:104880005470C943D1803454D5701F330749138104
:10489000147014310C540A310C5470BD1554E4E7F3
:1048A000194655706431D1803554EDE7D811002098
:1048B0001C02002010B50349095C012901D100F058
:1048C0000DF810BDE211002010B50349095C012963
:1048D00001D100F015F810BDE211002010B5074A13
:1048E0000021115411460A390A5C002A05D101221F
:1048F0000A540146082001F0BBFB10BDF611002050
:1049000010B5074A0021115411460A310A5C002AE9
:1049100005D101220A540146102001F0A9FB10BD67
:10492000EC1100200102064810B5081804460821C1
:10493000FDF717F92046FDF7FFF80028FAD110BD62
:10494000010400007047000010B500280ED10429B2
:104950000CD10A480178012908D14178012905D1F3
:104960008178012902D1C078012801D0002010BD32
:1049700003490020FDF78EFC012010BDA801002096
:10498000AAAAAAAA10B50020FDF778FB034988421D
:1049900003D100210846FDF77DFC10BDAAAAAAAAF2
:1049A00038B5FF210131084C0091034621790022DE
:1049B000052001F0C1FB6068FF2801D8401C606041
:1049C0000120E07038BD0000A8010020024800214D
:1049D0004160012181707047A801002038B505466B
:1049E00001F00CFCFF200130094C009021792B468E
:1049F0000022052001F0E2FB01F0D3FBC007FBD150
:104A00006068FF2801D8401C60600120607038BDDC
:104A1000A801002010B501F0F1FB0022114605208D
:104A200001F0AAFB01F0BDFBC007FBD10021044847
:104A300001224160027041708170C17010BD0000A0
:104A4000A8010020F8B50446FEF712FD2D4A002605
:104A5000174615461E372835002803D0385D012833
:104A60003BD042E02748A7001E30005D002808D058
:104A700024483430C059C82822D9285D002817D0CE
:104A80001EE0105D012802D1204603F095FF1D486D
:104A900021460A30005D012802D10846FFF7D2FE08
:104AA000184801213430C6512E551638015507E0FB
:104AB0002046115C012901D103F0CEFF01202855C9
:104AC000104920460A31095C012901D1FFF7F2FEA5
:104AD0000C49012014310855F8BD2046125C295CB0
:104AE000012A01D103F072FF3E55064920460A31E2
:104AF000095C012901D1FFF7E7FE02481430065591
:104B0000F8BD00007C110020F8B5054610480126CC
:104B100000270C46082910D0102C0ED0182C0CD0D1
:104B200047550B480A30202C0CD0282C0AD0302CAA
:104B300008D0382C06D04755F8BD4655284603F016
:104B400069FFEEE7465521462846FFF785FEF8BD8A
:104B50007C11002070B503F0B1FF094C0020094D15
:104B600021461631225C012A05D18300CA58AA4287
:104B700001D2521CCA50401CC0B20A28F2D370BDE8
:104B80009A110020FFFF000070B5FFB081B0002037
:104B900000F004FC222808D038480178052901D10A
:104BA000022101707FB001B070BD002000F0D6FB83
:104BB0000828F7D900F032FB314C002020706070DB
:104BC000A070E0706071A071E0710822214603F0CE
:104BD000AFFF25460C3D2078287060786870A0787B
:104BE000A870E078E87020796179000240182E46BC
:104BF0007060A079E1790002421869460020B26035
:104C000003F096FF684600785428CBD16846407878
:104C10004328C7D1684680789728C3D11A481949D4
:104C200002780B782C7813401440A342BAD1427812
:104C30004B786C7813401440A342B3D182788B78C0
:104C4000AC7813401440A342ACD1C078C978EA785C
:104C5000014002409142A5D1B16800206C460B4B47
:104C60000A1F03E02518ED781D54401C9042F9D32B
:104C70000648091F00F0CAF894E700000001002070
:104C8000F800002024010020280100201005002049
:104C900070B50C4C2078012813D1032000F05EFB86
:104CA00000260125002804D026700320FEF76CFEA4
:104CB0006570A068002804D126700320FEF764FE0A
:104CC000A57070BD7801002070B50F4C05462078A6
:104CD000002817D10121032005F0CEFC0321002379
:104CE0000A4A084605F072FD0A2005F015FF00206B
:104CF0006070A0703220A06029460320FDF7EAFB17
:104D000001202070012070BD78010020B80B000048
:104D10000148407870470000780100200148807801
:104D2000704700007801002004480178012904D16F
:104D30008168002901D0491E8160704778010020F8
:104D4000F0B58FB0142101A8FCF701FA002406A8E1
:104D5000FEF788FF6846007E012817D105266846C1
:104D60000671FF214171F0218171C171017241729F
:104D7000002181720B211F4DC1722878052802D1B4
:104D8000E868002804D0E868401EE8600FB0F0BD75
:104D900001AF1948015DFF291AD01849095D0029A2
:104DA00018D000192038007E002821D0032039199E
:104DB000641C08720A2CECD311480E4B006800905A
:104DC0001433132201A9002000F09EF8EE60DDE705
:104DD000FF20ECE70B49A000095A0B4A89B2105892
:104DE000FCF722FE002801D00020E0E70120DEE7EA
:104DF0000220DCE7000100208B0800208008002052
:104E0000E800002028090020FC080020F8B50178FF
:104E1000002908D0012918D003292DD0052945D013
:104E200004294AD06CE001794079002904D0012995
:104E300005D0402906D063E001F0E6FB60E002F017
:104E400069FA5DE003F0DCFA5AE005794479867985
:104E5000284602F031FB012852D1632C02D0E42C09
:104E600005D04DE02946304601F0A4FA48E0294635
:104E7000304602F01EFB43E0057944798679C77914
:104E8000284602F019FB01283AD1632C02D0E42C09
:104E900006D035E03A462946304601F07BFB2FE04C
:104EA0003A462946304602F005FB29E0017940796F
:104EB000012925D102F076FA22E001794079002912
:104EC0000AD040290BD0E4290CD077290DD0A02995
:104ED0000ED078290FD013E001F026FF10E003F088
:104EE0008DFB0DE002F0E7FA0AE002F023FE07E096
:104EF00002F0F0FA04E0012802D1024802F00AFEB2
:104F00000120F8BDEC000020F0B5CDB09C468646EF
:104F100054236846529F037100254323437197230E
:104F200083712C4601AE06E0085D3319D8700B5D25
:104F30005819C5B2641C9442F6D3B018C5706346C4
:104F400031467046121D009703F0B6FF4DB0F0BD1C
:104F500008B56846FEF78AFD6846007800280BD140
:104F600068464078002807D168468078002803D139
:104F70006846C078002800D0012008BDF0B585B093
:104F800003A8FEF773FD814C207805270025012634
:104F90000300FDF77EFA06040D141E304A0B802133
:104FA0007B48FCF748FD64202061267005B0F0BD09
:104FB00020690028FAD164202061022014E02069D1
:104FC0000028F3D100F030F903202070C8202061C0
:104FD000ECE7FFF7BDFF012808D120690028E5D1E3
:104FE00003A8FFF771FE04202070DFE72770E6704A
:104FF0000A202071DAE7FFF7ABFF0128F6D1FFF7AF
:1050000087FE012803D0FFF789FE0128CED1FFF7E4
:105010007FFE0128EAD0A0780A28E7D8A078401CB3
:10502000A0702570FEF762FCC0E705F08DFF5748C1
:10503000C078FF24574F012820D154480079002818
:105040001CD155A00068049050496846047118317D
:105050000A7842714A7882718A78C271CA7802727B
:105060000A794272497981723868009004AB07224C
:1050700001A90020FFF748FF4448C5704348407924
:1050800001281CD1454968460A7802744A7842745E
:1050900089788174C47406714571FE218171C17172
:1050A000892101726321417286723868009004ABD5
:1050B000072201A90020FFF727FF34484571334834
:1050C000807901281DD1354968460A7802744A78EA
:1050D000427489788174C47406714571FE218171AE
:1050E000C171892101726321417206218172386880
:1050F000009004AB072201A90020FFF705FF234819
:1051000085712248C07901281CD1244968460A7853
:1051100002744A78427489788174C4740671457146
:10512000FE218171C1719B210172642141728572DE
:105130003868009004AB072201A90020FFF7E4FEC5
:105140001248C5711148007A012800D02EE7134992
:1051500068460A7802744A78427489788174C47403
:1051600006714571FE218171C1719B21017264211B
:105170004172022181723868009004AB072201A9B4
:105180000020FFF7C1FE014805720FE70001002073
:1051900000080048E8000020FFFFFFFF2401002076
:1051A000024800218170017070470000000100205A
:1051B0000248002181700321017070470001002026
:1051C00000B509480178052907D10121C17041784E
:1051D000022903D24178491C417000BD0021417071
:1051E000FFF7E6FF00BD000000010020024800219B
:1051F00081700170704700000001002006480169BD
:10520000002902D00169491E01610179002902D0FB
:105210000179491E017170470001002001490020F9
:1052200048707047000100200EB56846FEF784FD07
:1052300001A8FFF74FF802A8FEF718FC80212048CC
:10524000FCF7FBFB0A2005F067FC00F09FFD02A8BD
:1052500005F0BEF91B4805F0D5F901A805F000FAE4
:10526000FDF7C8FD684605F0E8F901210A2005F0C0
:105270007DFC0A2005F050FC0023134A0221184649
:1052800005F0A4FA0A2005F047FC68460278007988
:105290000C49C0430243091F0A70684642784079AE
:1052A000C04302434A70684682788079C043024313
:1052B0008A706846C278C079C0430243CA700EBD86
:1052C0000008004818010020BA0800000149012028
:1052D000087070478401002070B5002403E00D5D64
:1052E00016198555641C9C42F9D370BD0149800094
:1052F0000858704780020020014980000858704714
:1053000040020020014980000858704760020020D8
:105310000149800008587047700200200149800050
:105320000858704730020020014980000858704733
:105330005002002010B504460F20FCF7FDFB207042
:105340001020FCF7F9FB60701120FCF7F5FBA07052
:105350001220FCF7F1FBE07010BD0000F8B50E491B
:10536000000245180026491C44182846FCF7E4FBB7
:1053700007462046FCF7E0FB3902471808D02846CC
:10538000FCF7DAFB06462046FCF7D6FB310246184E
:10539000BE42EAD13046F8BD26040000034910B5EC
:1053A00000024018FCF7C8FB10BD00000304000019
:1053B000F8B521214901000245180026491C44186E
:1053C0002846FCF7B9FB07462046FCF7B5FB390237
:1053D000471808D02846FCF7AFFB06462046FCF7E6
:1053E000ABFB31024618BE42EAD13046F8BD0000A0
:1053F00010B504460B48005DFF280ED10120FCF7D4
:105400003DFE084901220B39095DA240002905D063
:10541000114601430120FCF73DFF10BD90430146BA
:10542000F8E700002F100020F0B528A487B024680A
:105430000694274C0D9E6578002D02D0002007B001
:10544000F0BD01276D462F726872A972EA722B7344
:105450000C986873AE730E98E8730F982874002048
:105460006874A874E8740590606800280CD100F096
:10547000C5FE217806A8405C0022114600F07CFEA3
:1054800000F08FFEC007FBD101AA2078616800F010
:1054900037F8012817D100F0B1FE102000906846BF
:1054A00082794179007902AB00F088FE00F079FE44
:1054B000C007FBD12078616800F038F80449091D65
:1054C000081F00F06BF80120B9E70000020300009C
:1054D000640100201CB5144601AA00F011F801284F
:1054E0000BD11020009068468279417900792346DB
:1054F00000F022FE2078012800D000201CBD000012
:1055000008B509A31B680093002803D0012801D027
:10551000002008BD6B46185C107008095070080127
:105520009070012008BD000002030000F3B51AA02E
:1055300083B0006802907F2040010C46814229D24E
:105540000120C002844201D2FE2700E0FF2760054F
:10555000060E0125039902A80095405C01AB324676
:10556000394600F0E9FDF000211A284688406A46D5
:1055700011798143117100F041FE039902A8009551
:10558000405C01AB3246394600F018FE00F009FEDF
:10559000C007FBD105B0F0BD02030000FEB5012538
:1055A000684605727F2208685201904202D2401C70
:1055B0000860FEBD00260E600E4C01AA0C49207842
:1055C000FFF79EFF00F01AFE6846009541790079CA
:1055D00002ABFF2200F0F2FD00F0E3FDC007FBD1BB
:1055E0002078002801D02670FEBD2570FEBD000089
:1055F000FF0F000064010020F3B51C4983B00126B1
:1056000000254E7004468D6008464A680078A24224
:1056100004D9111B491E0091049A20E0002812D0E1
:10562000002701AA12493846FFF76AFF684600962C
:105630004179007902ABFF2200F07EFD6846007AD6
:10564000012802D00EE00127EBE70848084940682E
:105650002039201A081A009001463846049AFFF7AC
:1056600039FF0546284605B0F0BD00006401002062
:10567000FF0F00003EB50E4C2078002816D0002009
:1056800001AA0C49FFF73CFF0120009068464179D0
:10569000007902ABFF2200F04FFD6846007A012836
:1056A000606802D17F21490140183EBD0120E7E733
:1056B00064010020FF0F000010B500F09FFD0022E4
:1056C0001146022000F058FD00F06BFDC007FBD131
:1056D00000F094FD00221146032000F04DFD00F083
:1056E00060FDC007FBD1024800210170416010BD80
:1056F0006401002006484178012905D1054A8168E6
:10570000914202D2491C816070470021417070476C
:1057100064010020881300000106090C000A0843F8
:1057200070470000F8B5002400212046FDF794FEE4
:10573000641CE4B20A2CF7D301210A20FDF78CFE89
:1057400000261D4C354626700127A088E840C0077A
:1057500008D0A089E840C00704D100212846FDF701
:105760007BFE27706D1CEDB20A2DEED30025A088BC
:10577000E840C00707D0A089E840C00703D0012156
:105780002846FDF769FE6D1CEDB20A2DEFD3218A84
:105790000A4A002043000C46DC40E40706D00C46D1
:1057A0005B1CDC40E30701D0175400E01654401C9A
:1057B000C0B20528EED3F8BDB0010020F9010020E9
:1057C00010B50122082902D2084B1C5C06E00B46EA
:1057D000093B012B05D8064B08391C5C8A40144351
:1057E0001C5404491420487010BD0000000800201B
:1057F00040080020B0010020F0B50746FF208BB024
:105800000990029008900546064604900390019086
:10581000079001292BD006292BD0072929D0092947
:1058200027D0084611380F2800D8C6B2084641389C
:105830000F2801D8C0B20290084651380F2801D86D
:10584000C0B20890084661380F2801D8C0B2049051
:10585000084671380F2801D8C0B203900846B13805
:105860000F2801D8C0B201902E2904D005E00025F0
:1058700003E0FE25DAE7012007907C48FF2F08D0DF
:10588000E1213940812956D081213940012974D044
:10589000E8E000240746B888E040C00746D0B88951
:1058A000E040C00742D0FF2E06D071482101081801
:1058B000815D6F48163835E00298FF2804D0014614
:1058C000204600F073F92EE00898FF2804D0204607
:1058D000029900F04BF926E00498FF2804D0014615
:1058E0002046FFF76DFF1EE00398FF2804D0014615
:1058F000204600F01FF916E00198FF2805D05C480B
:1059000021010818805D09900DE0FF2D03D0584853
:105910001638055507E00798012804D15448B030DF
:10592000015DBB3801552046FFF762FD641CE4B2FF
:105930000B2CB0D396E000244C488188E140C90785
:1059400045D08089E040C00741D0F806010F2046CD
:10595000FDF716F901283AD1FF2E06D0444821015F
:105960000818815D424816382DE00298FF2805D0BE
:105970000146204600F01AF926E02DE00898FF289D
:1059800004D02046029900F0F1F81DE00498FF28A9
:1059900004D001462046FFF713FF15E00398FF28C7
:1059A00004D00146204600F0C5F80DE0FF2D03D0DD
:1059B0002F481638055507E00798012804D12C48D0
:1059C000B030015DBB3801552046FFF711FD641C66
:1059D000E4B20B2CB0D345E079068C0E0B2C41D2EF
:1059E0008188E140C9073DD08089E040C00739D0B7
:1059F000FF2E06D01E4821010818815D1C4816386C
:105A00002CE00298FF2804D00146204600F0CEF892
:105A100025E00898FF2804D02046029900F0A6F857
:105A20001DE00498FF2804D001462046FFF7C8FE79
:105A300015E00398FF2804D00146204600F07AF8CC
:105A40000DE0FF2D03D00A481638055507E00798EA
:105A5000012804D10648B030015DBB38015520460D
:105A6000FFF7C6FC09980BB0F0BD0000B0010020A4
:105A70003A10002070B52A4DFF24A87800280ED1D6
:105A8000FEF7B0FAAC70FFF74DFE00F0F9FA04F043
:105A90008BFC00F0C3F800F013F900F097F8687879
:105AA000002802D1FEF79EFA6C701E4E0024A888D2
:105AB000E040C0072CD0A889E040C00728D0E88982
:105AC000E040C00703D0288AE040C0070AD0002089
:105AD0003055288AE040C0071AD0E889E040C00766
:105AE0000ED015E010481149005D085501213155CF
:105AF000002803D02046FDF7C1FCEAE70021F9E7C2
:105B00000B48005D012808D000212046FDF7B6FCB7
:105B1000641CE4B20B2CCAD370BD0121F5E7000070
:105B2000B0010020100400202410002050040020A8
:105B30005A11002010B50122082902D2084B1C5C22
:105B400006E00B46093B012B05D8064B08391C5CC7
:105B50008A4094431C5404491420487010BD00002E
:105B60000008002040080020B0010020044B000184
:105B7000FF22C018425403491420487070470000A7
:105B80003A100020B001002007484178FF2903D0D7
:105B9000002901D0491E41708178FF2903D00029D6
:105BA00001D0491E81707047B0010020054A054BA5
:105BB000125C0001B03BC0184254034914204870E5
:105BC00070470000EA100020B0010020F8B5012065
:105BD000FCF754FA0F4A104D948993880021FE2750
:105BE0002A460B3A1E46CE40F6070DD02646CE403A
:105BF000F60709D06E5CFF2E01D0565404E006462D
:105C0000CE40F607F9D05754491CC9B20B29E9D345
:105C1000F8BD0000B00100202F100020F0B524498D
:105C200000248A89CB898988A3B020469C462646D1
:105C3000FF250B46C340DB0712D01346C340DB07EA
:105C40000ED06346C340DB070AD00B2808D20123DD
:105C500002AF3B54062312AF641C3B54E4B203E092
:105C600002AB1E5412AB1D54401CC0B24028E0D3FE
:105C7000002102A8FDF7EAFE012212A902A8FDF701
:105C8000C5FE0C484021017046700B490B480A784C
:105C900002704A78427089788170C5700122FF23B2
:105CA0000221104600950194FEF710FC23B0F0BDD0
:105CB000B0010020CA01002024010020CC010020F6
:105CC000F0B587B00027FEF71FF800242646254DC3
:105CD00001E0002C03D12448007801281FD0E00007
:105CE0002E5441194E70FF20087148718871C87197
:105CF0008E70082201A8FBF711FA05AA02990198F3
:105D000000F049F805A9204600F0BAF8641CE4B296
:105D1000102CDED3FDF7ECFF384607B0F0BD0120B4
:105D2000287011486E7012300178297141786971BC
:105D30008178A971C078E8710320A8700920E87003
:105D4000294608226846FBF7E9F905AA0199009857
:105D500000F021F805A9304600F092F87F1CFFB250
:105D6000D4E70000D40F0020B001002004490A78D5
:105D700002704A7842708A788270C978C170704720
:105D8000C201002010B5FEF78BFA10BD10B58020BF
:105D900004F031FC10BD17B581B0002168460180C8
:105DA0001446114600796A46FDF7A8FD684600884A
:105DB0006A46211868464079FDF7A0FD68460088CC
:105DC0006A46211868468079FDF798FD6846008884
:105DD0006A4621186846C079FDF790FD684600883C
:105DE000042321186A4602A8FDF727F81FBD70B5E5
:105DF00088B006460A4600256846058103A9104674
:105E0000FDF742FF012802D0684605700BE06846A6
:105E1000008903AC201802AA6946FDF769FD6846AF
:105E2000007801280DD0FF2069460095087148715F
:105E30008871C871082269463046FBF76FF908B0CF
:105E400070BD6846008902AA20186D46D11FFDF773
:105E50004FFD6846008902AA2018A91CFDF748FDDD
:105E60006846008902AA2018E91CFDF741FD684632
:105E700000890423201802AA291DFCF7D1FFD9E7C5
:105E800010B5FDF719FFC0B210BD000010B50648EF
:105E90000178012906D100210170C278817840780B
:105EA00000F070F810BD00009F010020FEB5844690
:105EB00000256846089C099905701078FF2304287E
:105EC00005D1032668460670C3708370037110788D
:105ED000012601280AD16F463E702778002F09D08D
:105EE00025700E706F463E702078B87010780228CA
:105EF00003D014E026700D70F4E72078002803D159
:105F00000878012800D126700C786846C4700224F5
:105F10000470837003710878002804D00D70107825
:105F2000082802D004E00E70F9E7042069460870E2
:105F30001078102802D105206946087015700522D6
:105F400069466046FBF7EAF8FEBD00007FB5002019
:105F50000B4D0446287121466846FFF748FF00981C
:105F60000199029003916846007A012802D12879AC
:105F7000401C2871641CE4B2102CECD37FBD0000DF
:105F80009F0100207FB50C46064615460021684655
:105F9000FFF72DFF00980199029003916846007A5F
:105FA00001280AD16846407A002806D10B463246BD
:105FB00001950094029800F003F87FBD704700003F
:105FC000FFB589B00121684601728273144604222C
:105FD0000CA90930FBF7A2F81849A0004718403176
:105FE000461808A8C07907900197009612AA04A83D
:105FF000139B0799FFF75AFF0599049800900191A8
:1060000068460578002D17D0072DEDD04470139900
:106010000171019B009A0399029804F050FA02A9B9
:106020000422013104A8FBF779F8019A0099049839
:1060300002F048F9002DD7D10DB0F0BD140D0020AD
:106040007047000070B5094D00242E460A36285DC1
:10605000002805D1305D012802D12046FEF7F2FC70
:10606000641CE4B20A2CF2D370BD0000651100205C
:106070000B4610B50146FF221846FFF783FF10BDFF
:1060800070B5184E184D00243088E040C00722D06B
:1060900016480088E040C0071DD115480088E04040
:1060A000C00701D008210CE012480088E040C0077A
:1060B00001D0182105E010480088E040C0070AD050
:1060C00028212046FEF720FD01202855641CE4B25B
:1060D0000A2CD9D370BD00212046FEF715FD002003
:1060E000F3E70000B40100206F110020BC01002084
:1060F000B6010020B8010020BA01002010B5FEF75B
:1061000029FD10BD10B504020A482018FBF714FD44
:10611000132801D0002010BD06480221801E20183F
:106120000446FBF71EFD2046FBF706FD0028FAD1CA
:10613000012010BD03040000FFB581B01D461746C5
:1061400004460A9E04F088FB032004F0F1FB20467D
:1061500004F0EEFB029804F0EBFB384604F0E8FB99
:10616000002403E004F0B8FB2855641CB442F9D3C2
:1061700004F092FB05B0F0BD70B515460E4604461E
:1061800004F06AFBD82004F0D3FB204604F0D0FBD7
:10619000304604F0CDFB284604F0CAFB04F07CFB3B
:1061A00070BD10B504F058FB052004F0C1FB04F0ED
:1061B00093FB044604F070FB204610BDFFB581B090
:1061C0001D46174604460A9E04F046FB022004F0D2
:1061D000AFFB204604F0ACFB029804F0A9FB384664
:1061E00004F0A6FB002403E0285D04F0A1FB641C7E
:1061F000B442F9D304F050FB05B0F0BD10B504F083
:106200002BFB062004F094FB04F046FB10BD0000BD
:106210003EB501204003404C009000230122A02104
:106220002046FBF779FC02212046FBF736FC0028CC
:10623000F9D0FA212046FBF76CFC40212046FBF701
:106240002CFC0028F9D009208002009000230622AF
:10625000A1212046FBF760FC04212046FBF71DFC32
:106260000028F9D02046FBF751FC6946087104214B
:106270002046FBF712FC0028F9D02046FBF746FC2D
:106280006946487104212046FBF707FC0028F9D035
:106290002046FBF73BFC6946887104212046FBF74A
:1062A000FCFB0028F9D02046FBF730FC6946C8719A
:1062B00004212046FBF7F1FB0028F9D02046FBF72C
:1062C00025FC6946087204212046FBF7E6FB0028FE
:1062D000F9D02046FBF71AFC694648724021204657
:1062E000FBF7DBFB0028F9D001212046FBF7CBFBB5
:1062F00069460A48097901706946497941706946D9
:10630000897981706946C979C1706946097A0171D4
:106310006946497A41713EBD005400401801002091
:10632000224A234B002081008C1824685C50401CBA
:106330003028F8D301210846FBF7A8FC0320FCF71E
:1063400023F804F0E1FDFDF7B3F8642004F0E4FB6A
:10635000FDF7AEF8FDF7A6FB02F054FCFEF712FBCA
:10636000FFF756FFFEF71CFF04F087FD04F01CF852
:10637000FFF7D8F9FFF784FEFFF728FC04F0BAFD19
:10638000FEF702FCFEF7FAFDFCF78CFFFDF790FA32
:10639000FEF77EFC04F0BEFC02F072FEFFF752FE38
:1063A000FFF768FBFCF7ACFDE8E700000010000811
:1063B00000000020F3B50546714801268178C078B9
:1063C00009020C18822783B0012D20D0062D7DD024
:1063D000072D1CD0092D1AD0284611380F2813D8A4
:1063E00029460498FFF708FA68460771210A4171A7
:1063F0008471C6710021017262480090624B0522CF
:1064000001A90020FEF780FD2E2D18D013E02946AB
:106410000498FFF7F1F968460771210A4171847108
:10642000C6710021017257480090574B052201A9FF
:106430000020FEF769FD284641380F2813D8294669
:106440000498FFF7D9F968460771210A41718471F0
:10645000C671002101724B4800904B4B052201A9E7
:106460000020FEF751FD284651380F2813D8294641
:106470000498FFF7C1F968460771210A41718471D8
:10648000C671002101723F4800903F4B052201A9CF
:106490000020FEF739FD284661380F2813D8294619
:1064A0000498FFF7A9F968460771210A41718471C0
:1064B000C6710021017233480090334B052201A9B7
:1064C0000020FEF721FD2846713800E036E00F2855
:1064D00013D829460498FFF78FF968460771210AF7
:1064E00041718471C6710021017226480090264BCB
:1064F000052201A90020FEF707FDA42D2AD0B12D09
:1065000001D3C02D26D004984006810EC12D2ED077
:10651000C22D11D168460771220A42718471C67179
:106520001A48415C6846017216480090164B0522D5
:1065300001A90020FEF7E8FC05B0F0BD294604984B
:10654000FFF75AF968460771210A41718471C671D3
:106550000021E8E769460F71200A48718C71CE71FD
:1065600029460498FFF748F969460872DCE768464F
:106570000771220A42718471C6710548D1E7000093
:1065800010050020BA080000EC00002040080020A0
:10659000000800203EB50C4617498B78C9781B02CD
:1065A0005B1800281DD0E3281AD1FF2C18D11349FD
:1065B00000200A54401CC0B20B28FAD3822168463E
:1065C0000171190A417183710121C17100210172A8
:1065D0000B4800900B4B052201A90020FEF794FC0C
:1065E0003EBDFF2AFCD0002A04D006212046FFF73A
:1065F00003F93EBD0121F9E710050020EA10002053
:10660000BA080000EC000020F0B5FE4CFE4DDFB0F3
:1066100000284ED002286AD004287DD021468A78EE
:106620002B46C9781B68082877D0102876D02028F8
:1066300075D0302874D0322873D004270026402823
:1066400070D042286FD050286ED054286DD080284A
:106650006CD0012788286AD0A02869D0A12868D0EA
:10666000A22867D0A62866D0B02879D0B22878D0E2
:10667000B3281CD11FA8FEF793F983216846017146
:10668000A1784171E1788171FF21C171002001A9D8
:106690001FAA135C0C18401C2371FF28F9D9286825
:1066A000DA4BFF22063200900020FEF72DFC5FB08F
:1066B000F0BD0320009083261CA8FDF73DFB18A821
:1066C000077C6846C77718A8437C6846837718A874
:1066D000827C6846427718A8C17C684601770671BB
:1066E000A6784671E47884716E46009857E00320DE
:1066F000009083261DA8FDF7EDFD18A8077D6846CC
:10670000C77718A8437D6846837718A8827D6846B6
:10671000427718A8C17D0FE024E043E06BE0C7E0BA
:1067200036E15BE185E190E19FE116E290E294E2DF
:1067300096E2A2E2ADE2BFE2684601770671A67872
:106740004671E0786C46A0710098E0716846077267
:1067500043728272C1722868AC4B08220090CBE26F
:10676000CCE2CFE20320009083261EA8FDF77EF93D
:1067700018A8077E6846C77718A8437E68468377BF
:1067800018A8827E6846427718A8C17E68460177BD
:106790000671A0786E467071E078B0710098F07163
:1067A0003046D4E705209A4C0090207808AD6870F8
:1067B000229060782870A6786D468646EE77E0785D
:1067C000A8778446257968464577647983270477D6
:1067D00007716F467A71B9710098F8712298387212
:1067E00070467872BE726046F8723D737C73009397
:1067F000864B0A2280E20F20009083260BA8FDF72B
:10680000D3FA08A9087BC8722290487B88722A9024
:10681000887B48722990C87B08722490087CC871D4
:106820002390487C88712890887C48712790C87C88
:1068300008712190087DC8708646487D88708F7DDC
:1068400084464F70C87D087009900B7E6846C377F8
:10685000497E817708A81F91827E6846427708A802
:10686000C17E684601770671A6784671E478847126
:10687000009CC4716C46229820722A9860722998F4
:10688000A0722498E0722398207328986073279848
:10689000A0736846219CC47370466C46207464469D
:1068A000684644748774099CC47403751F9B50E147
:1068B000832113910F210FA80091FDF791FA08A8E9
:1068C000017FC1722891477F8772817F4172299130
:1068D000C17F01728E4610A8017808A8C17110A866
:1068E0002491417808A8817110A82791817808A87F
:1068F00041718C4610A8C17808A8017110A8219197
:10690000017908A8C17010A82091417908A8817068
:1069100010A82391817908A8417010A82291C1790B
:1069200008A8017010A80891067A6846C67710A8D2
:10693000437A6846837710A8827A6846427710A81F
:10694000C17A68460177079113990171A178417165
:10695000E17881710099C171289901724772299972
:1069600081727146C17224990173279941736146FE
:1069700081732199C17320990174239941742299DB
:1069800081740899C1740675437582750799E2E0B0
:10699000832013900320009002F0F3F96946C87732
:1069A000089002F005F969460746887702F0ADF9CC
:1069B00069464877064602F0F9F9694608770246C3
:1069C00013980871A0784871E07888710098C871B0
:1069D000089808724F728E72CA72BCE683221392B4
:1069E0000222009202F0F9F869460746887702F021
:1069F0006DF969460646487702F09CF969460877C2
:106A0000139A07E010050020E8000020EC000020A9
:106A1000180100200A71A2784A71E2788A71009AFE
:106A2000CA710F724E7288722868BE4B072200909E
:106A300062E1684683250677477705714271012434
:106A40008171C471067247720BE083240125684688
:106A5000077706264677047142718171C571077206
:106A600046720093AF4B062246E10F20009083262A
:106A700014A8FCF79FFF10A90F7C08A9CF7210A9DA
:106A8000487C08A9887210A92A90887C08A94872B5
:106A900010A92990C87C08A9087210A92590087D22
:106AA00008A9C87110A92490487D08A9887110A967
:106AB0002890887D08A9487110A92790C87D08A949
:106AC000087110A91F90087E08A9C87010A90A9023
:106AD000487E08A9887010A92390887E08A948706C
